{
  "contractName": "TokenAuction",
  "abi": [
    {
      "constant": true,
      "inputs": [],
      "name": "nonFungibleContract",
      "outputs": [
        {
          "name": "",
          "type": "address"
        }
      ],
      "payable": false,
      "stateMutability": "view",
      "type": "function"
    },
    {
      "constant": true,
      "inputs": [
        {
          "name": "",
          "type": "uint256"
        }
      ],
      "name": "tokenIdToAuction",
      "outputs": [
        {
          "name": "owner",
          "type": "address"
        },
        {
          "name": "seller",
          "type": "address"
        },
        {
          "name": "price",
          "type": "uint128"
        },
        {
          "name": "sold",
          "type": "bool"
        }
      ],
      "payable": false,
      "stateMutability": "view",
      "type": "function"
    },
    {
      "inputs": [
        {
          "name": "_nftAddress",
          "type": "address"
        }
      ],
      "payable": false,
      "stateMutability": "nonpayable",
      "type": "constructor"
    },
    {
      "constant": false,
      "inputs": [
        {
          "name": "_tokenId",
          "type": "uint256"
        },
        {
          "name": "_price",
          "type": "uint128"
        }
      ],
      "name": "sell",
      "outputs": [],
      "payable": false,
      "stateMutability": "nonpayable",
      "type": "function"
    },
    {
      "constant": false,
      "inputs": [
        {
          "name": "_tokenId",
          "type": "uint256"
        }
      ],
      "name": "bid",
      "outputs": [],
      "payable": true,
      "stateMutability": "payable",
      "type": "function"
    },
    {
      "constant": false,
      "inputs": [
        {
          "name": "_tokenId",
          "type": "uint256"
        }
      ],
      "name": "cancel",
      "outputs": [],
      "payable": false,
      "stateMutability": "nonpayable",
      "type": "function"
    }
  ],
  "bytecode": "0x6060604052738f0483125fcb9aaaefa9209d8e9d7b9c8b9fb90f600160006101000a81548173ffffffffffffffffffffffffffffffffffffffff021916908373ffffffffffffffffffffffffffffffffffffffff160217905550341561006457600080fd5b604051602080610cf283398101604052808051906020019091905050806000806101000a81548173ffffffffffffffffffffffffffffffffffffffff021916908373ffffffffffffffffffffffffffffffffffffffff16021790555050610c22806100d06000396000f30060606040526004361061006d576000357c0100000000000000000000000000000000000000000000000000000000900463ffffffff16806340e58ee514610072578063454a2ab3146100955780639773128c146100ad578063dd1b7a0f146100eb578063e3b1475714610140575b600080fd5b341561007d57600080fd5b610093600480803590602001909190505061020c565b005b6100ab600480803590602001909190505061052e565b005b34156100b857600080fd5b6100e960048080359060200190919080356fffffffffffffffffffffffffffffffff16906020019091905050610858565b005b34156100f657600080fd5b6100fe61087b565b604051808273ffffffffffffffffffffffffffffffffffffffff1673ffffffffffffffffffffffffffffffffffffffff16815260200191505060405180910390f35b341561014b57600080fd5b61016160048080359060200190919050506108a0565b604051808573ffffffffffffffffffffffffffffffffffffffff1673ffffffffffffffffffffffffffffffffffffffff1681526020018473ffffffffffffffffffffffffffffffffffffffff1673ffffffffffffffffffffffffffffffffffffffff168152602001836fffffffffffffffffffffffffffffffff166fffffffffffffffffffffffffffffffff1681526020018215151515815260200194505050505060405180910390f35b610214610b8d565b60026000838152602001908152602001600020608060405190810160405290816000820160009054906101000a900473ffffffffffffffffffffffffffffffffffffffff1673ffffffffffffffffffffffffffffffffffffffff1673ffffffffffffffffffffffffffffffffffffffff1681526020016001820160009054906101000a900473ffffffffffffffffffffffffffffffffffffffff1673ffffffffffffffffffffffffffffffffffffffff1673ffffffffffffffffffffffffffffffffffffffff1681526020016002820160009054906101000a90046fffffffffffffffffffffffffffffffff166fffffffffffffffffffffffffffffffff166fffffffffffffffffffffffffffffffff1681526020016002820160109054906101000a900460ff16151515158152505090503373ffffffffffffffffffffffffffffffffffffffff16816020015173ffffffffffffffffffffffffffffffffffffffff1614151561038457600080fd5b60026000838152602001908152602001600020600080820160006101000a81549073ffffffffffffffffffffffffffffffffffffffff02191690556001820160006101000a81549073ffffffffffffffffffffffffffffffffffffffff02191690556002820160006101000a8154906fffffffffffffffffffffffffffffffff02191690556002820160106101000a81549060ff021916905550506000809054906101000a900473ffffffffffffffffffffffffffffffffffffffff1673ffffffffffffffffffffffffffffffffffffffff166323b872dd308360200151856040518463ffffffff167c0100000000000000000000000000000000000000000000000000000000028152600401808473ffffffffffffffffffffffffffffffffffffffff1673ffffffffffffffffffffffffffffffffffffffff1681526020018373ffffffffffffffffffffffffffffffffffffffff1673ffffffffffffffffffffffffffffffffffffffff1681526020018281526020019350505050600060405180830381600087803b151561051a57600080fd5b5af1151561052757600080fd5b5050505050565b610536610b8d565b600060026000848152602001908152602001600020608060405190810160405290816000820160009054906101000a900473ffffffffffffffffffffffffffffffffffffffff1673ffffffffffffffffffffffffffffffffffffffff1673ffffffffffffffffffffffffffffffffffffffff1681526020016001820160009054906101000a900473ffffffffffffffffffffffffffffffffffffffff1673ffffffffffffffffffffffffffffffffffffffff1673ffffffffffffffffffffffffffffffffffffffff1681526020016002820160009054906101000a90046fffffffffffffffffffffffffffffffff166fffffffffffffffffffffffffffffffff166fffffffffffffffffffffffffffffffff1681526020016002820160109054906101000a900460ff1615151515815250509150816020015190508073ffffffffffffffffffffffffffffffffffffffff166108fc349081150290604051600060405180830381858888f1935050505015156106b157600080fd5b6000809054906101000a900473ffffffffffffffffffffffffffffffffffffffff1673ffffffffffffffffffffffffffffffffffffffff166323b872dd8233866040518463ffffffff167c0100000000000000000000000000000000000000000000000000000000028152600401808473ffffffffffffffffffffffffffffffffffffffff1673ffffffffffffffffffffffffffffffffffffffff1681526020018373ffffffffffffffffffffffffffffffffffffffff1673ffffffffffffffffffffffffffffffffffffffff1681526020018281526020019350505050600060405180830381600087803b15156107a857600080fd5b5af115156107b557600080fd5b50505060026000848152602001908152602001600020600080820160006101000a81549073ffffffffffffffffffffffffffffffffffffffff02191690556001820160006101000a81549073ffffffffffffffffffffffffffffffffffffffff02191690556002820160006101000a8154906fffffffffffffffffffffffffffffffff02191690556002820160106101000a81549060ff02191690555050505050565b6108623383610939565b151561086d57600080fd5b6108778282610a17565b5050565b6000809054906101000a900473ffffffffffffffffffffffffffffffffffffffff1681565b60026020528060005260406000206000915090508060000160009054906101000a900473ffffffffffffffffffffffffffffffffffffffff16908060010160009054906101000a900473ffffffffffffffffffffffffffffffffffffffff16908060020160009054906101000a90046fffffffffffffffffffffffffffffffff16908060020160109054906101000a900460ff16905084565b60008273ffffffffffffffffffffffffffffffffffffffff166000809054906101000a900473ffffffffffffffffffffffffffffffffffffffff1673ffffffffffffffffffffffffffffffffffffffff16636352211e846040518263ffffffff167c010000000000000000000000000000000000000000000000000000000002815260040180828152602001915050602060405180830381600087803b15156109e157600080fd5b5af115156109ee57600080fd5b5050506040518051905073ffffffffffffffffffffffffffffffffffffffff1614905092915050565b610a1f610b8d565b6080604051908101604052803373ffffffffffffffffffffffffffffffffffffffff1681526020013373ffffffffffffffffffffffffffffffffffffffff168152602001836fffffffffffffffffffffffffffffffff168152602001600015158152509050806002600085815260200190815260200160002060008201518160000160006101000a81548173ffffffffffffffffffffffffffffffffffffffff021916908373ffffffffffffffffffffffffffffffffffffffff16021790555060208201518160010160006101000a81548173ffffffffffffffffffffffffffffffffffffffff021916908373ffffffffffffffffffffffffffffffffffffffff16021790555060408201518160020160006101000a8154816fffffffffffffffffffffffffffffffff02191690836fffffffffffffffffffffffffffffffff16021790555060608201518160020160106101000a81548160ff021916908315150217905550905050505050565b608060405190810160405280600073ffffffffffffffffffffffffffffffffffffffff168152602001600073ffffffffffffffffffffffffffffffffffffffff16815260200160006fffffffffffffffffffffffffffffffff16815260200160001515815250905600a165627a7a72305820fa36e961cb9a396187ce8868d58ce4930bc8a40268b1c542cf58b0a866882e370029",
  "source": "pragma solidity ^0.4.21;\r\n\r\nimport \"zeppelin-solidity/contracts/token/ERC721/ERC721Token.sol\";\r\n\r\ncontract TokenAuction {\r\n\r\n    ERC721 public nonFungibleContract;\r\n    address _escrow = 0x8f0483125fcb9aaaefa9209d8e9d7b9c8b9fb90f;\r\n\r\n    struct Auction {\r\n        address owner;\r\n        address seller;\r\n        uint128 price;        \r\n        bool sold;\r\n    }\r\n\r\n    mapping (uint256 => Auction) public tokenIdToAuction;\r\n\r\n    function TokenAuction(address _nftAddress) public {\r\n        nonFungibleContract = ERC721(_nftAddress);\r\n    }\r\n    \r\n    /// @dev Returns true if the claimant owns the token.\r\n    /// @param _claimant - Address claiming to own the token.\r\n    /// @param _tokenId - ID of token whose ownership to verify.\r\n    function _owns(address _claimant, uint256 _tokenId) internal view returns (bool) {\r\n        return (nonFungibleContract.ownerOf(_tokenId) == _claimant);\r\n    }\r\n\r\n    function createAuction( uint256 _tokenId, uint128 _price ) internal {\r\n        //nonFungibleContract.takeOwnership(_tokenId); //this does not work anymore\r\n        Auction memory _auction = Auction({\r\n            owner: msg.sender, //[this] is the address of the current contract. [TEMP: replacing this with msg.sender]\r\n            seller: msg.sender, //msg.sender is the caller\r\n            price: uint128(_price),\r\n            sold: false\r\n        });\r\n        tokenIdToAuction[_tokenId] = _auction;\r\n    }\r\n    function escrow(address _from, uint256 _tokenId) internal {\r\n        address _contract = address(this);\r\n        //nonFungibleContract.approve(_contract, _tokenId); //cannot call approve like this bcz approves expect msg.sender to be the NFT owner. However calling second contract like this makes msg.sender this contract address\r\n        nonFungibleContract.transferFrom(_from, _contract, _tokenId);\r\n    }\r\n\r\n    function sell( uint256 _tokenId, uint128 _price ) public {\r\n        require(_owns(msg.sender, _tokenId));        \r\n        //escrow(msg.sender, _tokenId);\r\n\r\n        createAuction(_tokenId, _price);\r\n    }\r\n\r\n    function bid( uint256 _tokenId ) public payable {\r\n        \r\n        Auction memory auction = tokenIdToAuction[_tokenId];\r\n        //require(auction.seller != address(0));\r\n        //require(auction.owner != address(0));\r\n        //require(msg.value >= auction.price);\r\n\r\n        address seller = auction.seller;\r\n        //uint128 price = auction.price;\r\n\r\n        //delete tokenIdToAuction[_tokenId];\r\n\r\n        seller.transfer(msg.value);\r\n        //auction.owner = msg.sender; //TEMP\r\n        //auction.seller = msg.sender; //TEMP\r\n        //auction.sold = true;\r\n        //tokenIdToAuction[_tokenId] = auction; //TEMP        \r\n        //nonFungibleContract.approve(msg.sender, _tokenId);\r\n        nonFungibleContract.transferFrom(seller, msg.sender, _tokenId); //we only approved this contract address and did not transfer ownership. so using seller instead of address(this)\r\n        //nonFungibleContract.transfer(msg.sender, _tokenId); //transfer from the contract address to the buyer.\r\n        delete tokenIdToAuction[_tokenId];\r\n    }\r\n\r\n    function cancel( uint256 _tokenId ) public {\r\n        \r\n        Auction memory auction = tokenIdToAuction[_tokenId];\r\n        require(auction.seller == msg.sender);\r\n\r\n        delete tokenIdToAuction[_tokenId];\r\n\r\n        nonFungibleContract.transferFrom(this, auction.seller, _tokenId);\r\n\r\n    }\r\n\r\n\r\n\r\n\r\n}",
  "sourcePath": "C:\\DATA\\ETHEREUM\\ERC721\\card-shop\\contracts\\TokenAuction.sol",
  "compiler": {
    "name": "solc",
    "version": "0.4.21+commit.dfe3193c.Emscripten.clang"
  },
  "schemaVersion": "2.0.0",
  "updatedAt": "2018-05-28T20:52:11.122Z"
}