{
  "contractName": "TokenAuction",
  "abi": [
    {
      "constant": true,
      "inputs": [],
      "name": "nonFungibleContract",
      "outputs": [
        {
          "name": "",
          "type": "address"
        }
      ],
      "payable": false,
      "stateMutability": "view",
      "type": "function"
    },
    {
      "constant": true,
      "inputs": [
        {
          "name": "",
          "type": "uint256"
        }
      ],
      "name": "tokenIdToAuction",
      "outputs": [
        {
          "name": "owner",
          "type": "address"
        },
        {
          "name": "seller",
          "type": "address"
        },
        {
          "name": "price",
          "type": "uint128"
        },
        {
          "name": "sold",
          "type": "bool"
        }
      ],
      "payable": false,
      "stateMutability": "view",
      "type": "function"
    },
    {
      "inputs": [
        {
          "name": "_nftAddress",
          "type": "address"
        }
      ],
      "payable": false,
      "stateMutability": "nonpayable",
      "type": "constructor"
    },
    {
      "constant": false,
      "inputs": [
        {
          "name": "_tokenId",
          "type": "uint256"
        },
        {
          "name": "_price",
          "type": "uint128"
        }
      ],
      "name": "createAuction",
      "outputs": [],
      "payable": false,
      "stateMutability": "nonpayable",
      "type": "function"
    },
    {
      "constant": false,
      "inputs": [
        {
          "name": "_tokenId",
          "type": "uint256"
        },
        {
          "name": "_price",
          "type": "uint128"
        }
      ],
      "name": "sell",
      "outputs": [],
      "payable": false,
      "stateMutability": "nonpayable",
      "type": "function"
    },
    {
      "constant": false,
      "inputs": [
        {
          "name": "_tokenId",
          "type": "uint256"
        }
      ],
      "name": "bid",
      "outputs": [],
      "payable": true,
      "stateMutability": "payable",
      "type": "function"
    },
    {
      "constant": false,
      "inputs": [
        {
          "name": "_tokenId",
          "type": "uint256"
        }
      ],
      "name": "cancel",
      "outputs": [],
      "payable": false,
      "stateMutability": "nonpayable",
      "type": "function"
    }
  ],
  "bytecode": "0x6060604052738f0483125fcb9aaaefa9209d8e9d7b9c8b9fb90f600160006101000a81548173ffffffffffffffffffffffffffffffffffffffff021916908373ffffffffffffffffffffffffffffffffffffffff160217905550341561006457600080fd5b604051602080610c2f83398101604052808051906020019091905050806000806101000a81548173ffffffffffffffffffffffffffffffffffffffff021916908373ffffffffffffffffffffffffffffffffffffffff16021790555050610b5f806100d06000396000f300606060405260043610610078576000357c0100000000000000000000000000000000000000000000000000000000900463ffffffff16806340e58ee51461007d578063454a2ab3146100a05780637a906be0146100b85780639773128c146100f6578063dd1b7a0f14610134578063e3b1475714610189575b600080fd5b341561008857600080fd5b61009e6004808035906020019091905050610255565b005b6100b6600480803590602001909190505061057b565b005b34156100c357600080fd5b6100f460048080359060200190919080356fffffffffffffffffffffffffffffffff16906020019091905050610888565b005b341561010157600080fd5b61013260048080359060200190919080356fffffffffffffffffffffffffffffffff169060200190919050506109fe565b005b341561013f57600080fd5b610147610a0c565b604051808273ffffffffffffffffffffffffffffffffffffffff1673ffffffffffffffffffffffffffffffffffffffff16815260200191505060405180910390f35b341561019457600080fd5b6101aa6004808035906020019091905050610a31565b604051808573ffffffffffffffffffffffffffffffffffffffff1673ffffffffffffffffffffffffffffffffffffffff1681526020018473ffffffffffffffffffffffffffffffffffffffff1673ffffffffffffffffffffffffffffffffffffffff168152602001836fffffffffffffffffffffffffffffffff166fffffffffffffffffffffffffffffffff1681526020018215151515815260200194505050505060405180910390f35b61025d610aca565b60026000838152602001908152602001600020608060405190810160405290816000820160009054906101000a900473ffffffffffffffffffffffffffffffffffffffff1673ffffffffffffffffffffffffffffffffffffffff1673ffffffffffffffffffffffffffffffffffffffff1681526020016001820160009054906101000a900473ffffffffffffffffffffffffffffffffffffffff1673ffffffffffffffffffffffffffffffffffffffff1673ffffffffffffffffffffffffffffffffffffffff1681526020016002820160009054906101000a90046fffffffffffffffffffffffffffffffff166fffffffffffffffffffffffffffffffff166fffffffffffffffffffffffffffffffff1681526020016002820160109054906101000a900460ff16151515158152505090503373ffffffffffffffffffffffffffffffffffffffff16816020015173ffffffffffffffffffffffffffffffffffffffff161415156103cd57600080fd5b60026000838152602001908152602001600020600080820160006101000a81549073ffffffffffffffffffffffffffffffffffffffff02191690556001820160006101000a81549073ffffffffffffffffffffffffffffffffffffffff02191690556002820160006101000a8154906fffffffffffffffffffffffffffffffff02191690556002820160106101000a81549060ff021916905550506000809054906101000a900473ffffffffffffffffffffffffffffffffffffffff1673ffffffffffffffffffffffffffffffffffffffff166323b872dd82602001518360000151856040518463ffffffff167c0100000000000000000000000000000000000000000000000000000000028152600401808473ffffffffffffffffffffffffffffffffffffffff1673ffffffffffffffffffffffffffffffffffffffff1681526020018373ffffffffffffffffffffffffffffffffffffffff1673ffffffffffffffffffffffffffffffffffffffff1681526020018281526020019350505050600060405180830381600087803b151561056757600080fd5b5af1151561057457600080fd5b5050505050565b610583610aca565b600060026000848152602001908152602001600020608060405190810160405290816000820160009054906101000a900473ffffffffffffffffffffffffffffffffffffffff1673ffffffffffffffffffffffffffffffffffffffff1673ffffffffffffffffffffffffffffffffffffffff1681526020016001820160009054906101000a900473ffffffffffffffffffffffffffffffffffffffff1673ffffffffffffffffffffffffffffffffffffffff1673ffffffffffffffffffffffffffffffffffffffff1681526020016002820160009054906101000a90046fffffffffffffffffffffffffffffffff166fffffffffffffffffffffffffffffffff166fffffffffffffffffffffffffffffffff1681526020016002820160109054906101000a900460ff1615151515815250509150816020015190508073ffffffffffffffffffffffffffffffffffffffff166108fc349081150290604051600060405180830381858888f1935050505015156106fe57600080fd5b33826000019073ffffffffffffffffffffffffffffffffffffffff16908173ffffffffffffffffffffffffffffffffffffffff168152505033826020019073ffffffffffffffffffffffffffffffffffffffff16908173ffffffffffffffffffffffffffffffffffffffff16815250506001826060019015159081151581525050816002600085815260200190815260200160002060008201518160000160006101000a81548173ffffffffffffffffffffffffffffffffffffffff021916908373ffffffffffffffffffffffffffffffffffffffff16021790555060208201518160010160006101000a81548173ffffffffffffffffffffffffffffffffffffffff021916908373ffffffffffffffffffffffffffffffffffffffff16021790555060408201518160020160006101000a8154816fffffffffffffffffffffffffffffffff02191690836fffffffffffffffffffffffffffffffff16021790555060608201518160020160106101000a81548160ff021916908315150217905550905050505050565b610890610aca565b6080604051908101604052803373ffffffffffffffffffffffffffffffffffffffff1681526020013373ffffffffffffffffffffffffffffffffffffffff168152602001836fffffffffffffffffffffffffffffffff168152602001600015158152509050806002600085815260200190815260200160002060008201518160000160006101000a81548173ffffffffffffffffffffffffffffffffffffffff021916908373ffffffffffffffffffffffffffffffffffffffff16021790555060208201518160010160006101000a81548173ffffffffffffffffffffffffffffffffffffffff021916908373ffffffffffffffffffffffffffffffffffffffff16021790555060408201518160020160006101000a8154816fffffffffffffffffffffffffffffffff02191690836fffffffffffffffffffffffffffffffff16021790555060608201518160020160106101000a81548160ff021916908315150217905550905050505050565b610a088282610888565b5050565b6000809054906101000a900473ffffffffffffffffffffffffffffffffffffffff1681565b60026020528060005260406000206000915090508060000160009054906101000a900473ffffffffffffffffffffffffffffffffffffffff16908060010160009054906101000a900473ffffffffffffffffffffffffffffffffffffffff16908060020160009054906101000a90046fffffffffffffffffffffffffffffffff16908060020160109054906101000a900460ff16905084565b608060405190810160405280600073ffffffffffffffffffffffffffffffffffffffff168152602001600073ffffffffffffffffffffffffffffffffffffffff16815260200160006fffffffffffffffffffffffffffffffff16815260200160001515815250905600a165627a7a72305820f52d321f941665a7c57e40256da3ab668686b3b906ad538207950dfd2ad67a480029",
  "source": "pragma solidity ^0.4.21;\r\n\r\nimport \"zeppelin-solidity/contracts/token/ERC721/ERC721Token.sol\";\r\n\r\ncontract TokenAuction {\r\n\r\n    ERC721 public nonFungibleContract;\r\n    address escrow = 0x8f0483125fcb9aaaefa9209d8e9d7b9c8b9fb90f;\r\n\r\n    struct Auction {\r\n        address owner;\r\n        address seller;\r\n        uint128 price;        \r\n        bool sold;\r\n    }\r\n\r\n    mapping (uint256 => Auction) public tokenIdToAuction;\r\n\r\n    function TokenAuction(address _nftAddress) public {\r\n        nonFungibleContract = ERC721(_nftAddress);\r\n    }\r\n    \r\n    function createAuction( uint256 _tokenId, uint128 _price ) public {\r\n        \r\n        Auction memory _auction = Auction({\r\n            owner: msg.sender, //[this] is the address of the current contract. [TEMP: replacing this with msg.sender]\r\n            seller: msg.sender, //msg.sender is the caller\r\n            price: uint128(_price),\r\n            sold: false\r\n        });\r\n        tokenIdToAuction[_tokenId] = _auction;        \r\n        //nonFungibleContract.approve(this, _tokenId);\r\n        \r\n    }\r\n\r\n    function sell( uint256 _tokenId, uint128 _price ) public {\r\n        createAuction(_tokenId, _price);\r\n    }\r\n\r\n    function bid( uint256 _tokenId ) public payable {\r\n        \r\n        Auction memory auction = tokenIdToAuction[_tokenId];\r\n        //require(auction.seller != address(0));\r\n        //require(auction.owner != address(0));\r\n        //require(msg.value >= auction.price);\r\n\r\n        address seller = auction.seller;\r\n        //uint128 price = auction.price;\r\n\r\n        //delete tokenIdToAuction[_tokenId];\r\n\r\n        seller.transfer(msg.value);\r\n        auction.owner = msg.sender; //TEMP\r\n        auction.seller = msg.sender; //TEMP\r\n        auction.sold = true;\r\n        tokenIdToAuction[_tokenId] = auction; //TEMP        \r\n        //nonFungibleContract.approve(msg.sender, _tokenId);\r\n        //nonFungibleContract.transferFrom(seller, msg.sender, _tokenId);\r\n        //delete tokenIdToAuction[_tokenId];\r\n    }\r\n\r\n    function cancel( uint256 _tokenId ) public {\r\n        \r\n        Auction memory auction = tokenIdToAuction[_tokenId];\r\n        require(auction.seller == msg.sender);\r\n\r\n        delete tokenIdToAuction[_tokenId];\r\n\r\n        nonFungibleContract.transferFrom(auction.seller, auction.owner, _tokenId);\r\n\r\n    }\r\n\r\n\r\n\r\n\r\n}",
  "sourcePath": "C:\\DATA\\ETHEREUM\\ERC721\\card-shop\\contracts\\TokenAuction.sol",
  "compiler": {
    "name": "solc",
    "version": "0.4.21+commit.dfe3193c.Emscripten.clang"
  },
  "schemaVersion": "2.0.0",
  "updatedAt": "2018-05-16T07:51:51.380Z"
}